{
  "status" : "success",
  "data" : {
    "network" : "BTC",
    "txid" : "cb90b267711165167a9ac82fa4ca1e561ae7d740b244bee98589523b04112241",
    "blockhash" : "000000000000000011a01872c6ee47dbe978dbf159ea44f0850c56fd1bbe599b",
    "block_no" : 350856,
    "confirmations" : 116,
    "time" : 1428251308,
    "version" : 1,
    "locktime" : 0,
    "sent_value" : "0.04870180",
    "fee" : "0.00010000",
    "inputs" : [
      {
        "input_no" : 0,
        "address" : "1EcsAJ1LdZw3NyAzNWhgeYkh3ky2gqsAt5",
        "value" : "0.04870180",
        "received_from" : {
          "txid" : "0eb83afffb0a932cd26c3fef3a7d7e44b28fd72052c60894ca09ce0b143e6f19",
          "output_no" : 1
        },
        "script_asm" : "304402207ff1951b0f11fbc7057ec1e5b411b0d571e4038bcf853a0cc03f3216704610ee022032cfce765285582ec9a5000c2e63ad8f37689ee85de425740e439fcf12b7cb1201 0304b91a4a3cba75b8fe2147d5ecc803111ba599c2e687d3e248d774b54bf0661d",
        "script_hex" : "47304402207ff1951b0f11fbc7057ec1e5b411b0d571e4038bcf853a0cc03f3216704610ee022032cfce765285582ec9a5000c2e63ad8f37689ee85de425740e439fcf12b7cb1201210304b91a4a3cba75b8fe2147d5ecc803111ba599c2e687d3e248d774b54bf0661d"
      }
    ],
    "outputs" : [
      {
        "output_no" : 0,
        "address" : "13pkANCBZFiH38Nr4s7WdhAMabyhguxwXq",
        "value" : "0.00007800",
        "type" : "multisig",
        "req_sigs" : 1,
        "spent" : null,
        "script_asm" : "1 039dcd0f4d061e6e484bdbb55ad08bef330e227d4fff77161442741a31a247dc35 0297ebaa744b178d6dae2096142eb187530895d2b307b8c62af8969c5cc5f8a7fe 0304b91a4a3cba75b8fe2147d5ecc803111ba599c2e687d3e248d774b54bf0661d 3 OP_CHECKMULTISIG",
        "script_hex" : "5121039dcd0f4d061e6e484bdbb55ad08bef330e227d4fff77161442741a31a247dc35210297ebaa744b178d6dae2096142eb187530895d2b307b8c62af8969c5cc5f8a7fe210304b91a4a3cba75b8fe2147d5ecc803111ba599c2e687d3e248d774b54bf0661d53ae"
      },
      {
        "output_no" : 1,
        "address" : "1EcsAJ1LdZw3NyAzNWhgeYkh3ky2gqsAt5",
        "value" : "0.04852380",
        "type" : "pubkeyhash",
        "req_sigs" : 1,
        "spent" : null,
        "script_asm" : "OP_DUP OP_HASH160 956210c4aec38eb7e4af31715a0d11d5936d85ed OP_EQUALVERIFY OP_CHECKSIG",
        "script_hex" : "76a914956210c4aec38eb7e4af31715a0d11d5936d85ed88ac"
      }
    ],
    "tx_hex" : "0100000001196f3e140bce09ca9408c65220d78fb2447e7d3aef3f6cd22c930afbff3ab80e010000006a47304402207ff1951b0f11fbc7057ec1e5b411b0d571e4038bcf853a0cc03f3216704610ee022032cfce765285582ec9a5000c2e63ad8f37689ee85de425740e439fcf12b7cb1201210304b91a4a3cba75b8fe2147d5ecc803111ba599c2e687d3e248d774b54bf0661dffffffff02781e000000000000695121039dcd0f4d061e6e484bdbb55ad08bef330e227d4fff77161442741a31a247dc35210297ebaa744b178d6dae2096142eb187530895d2b307b8c62af8969c5cc5f8a7fe210304b91a4a3cba75b8fe2147d5ecc803111ba599c2e687d3e248d774b54bf0661d53ae9c0a4a00000000001976a914956210c4aec38eb7e4af31715a0d11d5936d85ed88ac00000000"
  },
  "code" : 200,
  "message" : ""
}